{
  "_format": "hh-sol-artifact-1",
  "contractName": "Store",
  "sourceName": "contracts/Store.sol",
  "abi": [
    {
      "inputs": [
        {
          "internalType": "uint256",
          "name": "_index",
          "type": "uint256"
        }
      ],
      "name": "buyItem",
      "outputs": [],
      "stateMutability": "payable",
      "type": "function"
    },
    {
      "inputs": [
        {
          "internalType": "uint256",
          "name": "_index",
          "type": "uint256"
        }
      ],
      "name": "deleteProduct",
      "outputs": [],
      "stateMutability": "nonpayable",
      "type": "function"
    },
    {
      "inputs": [],
      "name": "getAllItems",
      "outputs": [
        {
          "components": [
            {
              "internalType": "uint256",
              "name": "id",
              "type": "uint256"
            },
            {
              "internalType": "address payable",
              "name": "seller",
              "type": "address"
            },
            {
              "internalType": "string",
              "name": "name",
              "type": "string"
            },
            {
              "internalType": "string",
              "name": "image",
              "type": "string"
            },
            {
              "internalType": "uint256",
              "name": "price",
              "type": "uint256"
            },
            {
              "internalType": "uint256",
              "name": "sellCount",
              "type": "uint256"
            },
            {
              "internalType": "bool",
              "name": "listed",
              "type": "bool"
            }
          ],
          "internalType": "struct Store.Item[]",
          "name": "",
          "type": "tuple[]"
        }
      ],
      "stateMutability": "view",
      "type": "function"
    },
    {
      "inputs": [
        {
          "internalType": "string",
          "name": "_name",
          "type": "string"
        },
        {
          "internalType": "string",
          "name": "_image",
          "type": "string"
        },
        {
          "internalType": "uint256",
          "name": "_price",
          "type": "uint256"
        }
      ],
      "name": "postItem",
      "outputs": [],
      "stateMutability": "nonpayable",
      "type": "function"
    }
  ],
  "bytecode": "0x608060405273874069fa1eb16d44d622f2e0ca25eea172369bc1600160006101000a81548173ffffffffffffffffffffffffffffffffffffffff021916908373ffffffffffffffffffffffffffffffffffffffff16021790555034801561006557600080fd5b50610fe0806100756000396000f3fe60806040526004361061003f5760003560e01c80630bf4f1f8146100445780634ba1d6aa1461006d578063e7fb74c714610098578063ed90c7b7146100b4575b600080fd5b34801561005057600080fd5b5061006b6004803603810190610066919061090c565b6100dd565b005b34801561007957600080fd5b5061008261021e565b60405161008f9190610bf0565b60405180910390f35b6100b260048036038101906100ad919061098b565b610564565b005b3480156100c057600080fd5b506100db60048036038101906100d6919061098b565b610727565b005b6040518060e0016040528060005481526020013373ffffffffffffffffffffffffffffffffffffffff168152602001848152602001838152602001828152602001600081526020016001151581525060026000805481526020019081526020016000206000820151816000015560208201518160010160006101000a81548173ffffffffffffffffffffffffffffffffffffffff021916908373ffffffffffffffffffffffffffffffffffffffff16021790555060408201518160020190805190602001906101ad929190610759565b5060608201518160030190805190602001906101ca929190610759565b506080820151816004015560a0820151816005015560c08201518160060160006101000a81548160ff02191690831515021790555090505060008081548092919061021490610e43565b9190505550505050565b6060600080600090505b60005481101561027d576002600082815260200190815260200160002060060160009054906101000a900460ff161561026a57818061026690610e43565b9250505b808061027590610e43565b915050610228565b5060008167ffffffffffffffff8111156102c0577f4e487b7100000000000000000000000000000000000000000000000000000000600052604160045260246000fd5b6040519080825280602002602001820160405280156102f957816020015b6102e66107df565b8152602001906001900390816102de5790505b50905060005b60005481101561055b576002600082815260200190815260200160002060060160009054906101000a900460ff161561054857600260008281526020019081526020016000206040518060e0016040529081600082015481526020016001820160009054906101000a900473ffffffffffffffffffffffffffffffffffffffff1673ffffffffffffffffffffffffffffffffffffffff1673ffffffffffffffffffffffffffffffffffffffff1681526020016002820180546103c090610de0565b80601f01602080910402602001604051908101604052809291908181526020018280546103ec90610de0565b80156104395780601f1061040e57610100808354040283529160200191610439565b820191906000526020600020905b81548152906001019060200180831161041c57829003601f168201915b5050505050815260200160038201805461045290610de0565b80601f016020809104026020016040519081016040528092919081815260200182805461047e90610de0565b80156104cb5780601f106104a0576101008083540402835291602001916104cb565b820191906000526020600020905b8154815290600101906020018083116104ae57829003601f168201915b5050505050815260200160048201548152602001600582015481526020016006820160009054906101000a900460ff16151515158152505082828151811061053c577f4e487b7100000000000000000000000000000000000000000000000000000000600052603260045260246000fd5b60200260200101819052505b808061055390610e43565b9150506102ff565b50809250505090565b600260008281526020019081526020016000206004015434146105bc576040517f08c379a00000000000000000000000000000000000000000000000000000000081526004016105b390610c32565b60405180910390fd5b600160009054906101000a900473ffffffffffffffffffffffffffffffffffffffff1673ffffffffffffffffffffffffffffffffffffffff166323b872dd336002600085815260200190815260200160002060010160009054906101000a900473ffffffffffffffffffffffffffffffffffffffff1660026000868152602001908152602001600020600401546040518463ffffffff1660e01b815260040161066793929190610bb9565b602060405180830381600087803b15801561068157600080fd5b505af1158015610695573d6000803e3d6000fd5b505050506040513d601f19601f820116820180604052508101906106b991906108e3565b6106f8576040517f08c379a00000000000000000000000000000000000000000000000000000000081526004016106ef90610c12565b60405180910390fd5b60026000828152602001908152602001600020600501600081548092919061071f90610e43565b919050555050565b60006002600083815260200190815260200160002060060160006101000a81548160ff02191690831515021790555050565b82805461076590610de0565b90600052602060002090601f01602090048101928261078757600085556107ce565b82601f106107a057805160ff19168380011785556107ce565b828001600101855582156107ce579182015b828111156107cd5782518255916020019190600101906107b2565b5b5090506107db9190610834565b5090565b6040518060e0016040528060008152602001600073ffffffffffffffffffffffffffffffffffffffff168152602001606081526020016060815260200160008152602001600081526020016000151581525090565b5b8082111561084d576000816000905550600101610835565b5090565b600061086461085f84610c77565b610c52565b90508281526020810184848401111561087c57600080fd5b610887848285610d9e565b509392505050565b60008151905061089e81610f7c565b92915050565b600082601f8301126108b557600080fd5b81356108c5848260208601610851565b91505092915050565b6000813590506108dd81610f93565b92915050565b6000602082840312156108f557600080fd5b60006109038482850161088f565b91505092915050565b60008060006060848603121561092157600080fd5b600084013567ffffffffffffffff81111561093b57600080fd5b610947868287016108a4565b935050602084013567ffffffffffffffff81111561096457600080fd5b610970868287016108a4565b9250506040610981868287016108ce565b9150509250925092565b60006020828403121561099d57600080fd5b60006109ab848285016108ce565b91505092915050565b60006109c08383610af8565b905092915050565b6109d181610d68565b82525050565b6109e081610d20565b82525050565b6109ef81610d0e565b82525050565b6000610a0082610cb8565b610a0a8185610cdb565b935083602082028501610a1c85610ca8565b8060005b85811015610a585784840389528151610a3985826109b4565b9450610a4483610cce565b925060208a01995050600181019050610a20565b50829750879550505050505092915050565b610a7381610d32565b82525050565b6000610a8482610cc3565b610a8e8185610cec565b9350610a9e818560208601610dad565b610aa781610f19565b840191505092915050565b6000610abf600f83610cfd565b9150610aca82610f2a565b602082019050919050565b6000610ae2600c83610cfd565b9150610aed82610f53565b602082019050919050565b600060e083016000830151610b106000860182610b9b565b506020830151610b2360208601826109d7565b5060408301518482036040860152610b3b8282610a79565b91505060608301518482036060860152610b558282610a79565b9150506080830151610b6a6080860182610b9b565b5060a0830151610b7d60a0860182610b9b565b5060c0830151610b9060c0860182610a6a565b508091505092915050565b610ba481610d5e565b82525050565b610bb381610d5e565b82525050565b6000606082019050610bce60008301866109e6565b610bdb60208301856109c8565b610be86040830184610baa565b949350505050565b60006020820190508181036000830152610c0a81846109f5565b905092915050565b60006020820190508181036000830152610c2b81610ab2565b9050919050565b60006020820190508181036000830152610c4b81610ad5565b9050919050565b6000610c5c610c6d565b9050610c688282610e12565b919050565b6000604051905090565b600067ffffffffffffffff821115610c9257610c91610eea565b5b610c9b82610f19565b9050602081019050919050565b6000819050602082019050919050565b600081519050919050565b600081519050919050565b6000602082019050919050565b600082825260208201905092915050565b600082825260208201905092915050565b600082825260208201905092915050565b6000610d1982610d3e565b9050919050565b6000610d2b82610d3e565b9050919050565b60008115159050919050565b600073ffffffffffffffffffffffffffffffffffffffff82169050919050565b6000819050919050565b6000610d7382610d7a565b9050919050565b6000610d8582610d8c565b9050919050565b6000610d9782610d3e565b9050919050565b82818337600083830152505050565b60005b83811015610dcb578082015181840152602081019050610db0565b83811115610dda576000848401525b50505050565b60006002820490506001821680610df857607f821691505b60208210811415610e0c57610e0b610ebb565b5b50919050565b610e1b82610f19565b810181811067ffffffffffffffff82111715610e3a57610e39610eea565b5b80604052505050565b6000610e4e82610d5e565b91507fffffffffffffffffffffffffffffffffffffffffffffffffffffffffffffffff821415610e8157610e80610e8c565b5b600182019050919050565b7f4e487b7100000000000000000000000000000000000000000000000000000000600052601160045260246000fd5b7f4e487b7100000000000000000000000000000000000000000000000000000000600052602260045260246000fd5b7f4e487b7100000000000000000000000000000000000000000000000000000000600052604160045260246000fd5b6000601f19601f8301169050919050565b7f5472616e73666572206661696c65640000000000000000000000000000000000600082015250565b7f57726f6e6720616d6f756e740000000000000000000000000000000000000000600082015250565b610f8581610d32565b8114610f9057600080fd5b50565b610f9c81610d5e565b8114610fa757600080fd5b5056fea26469706673582212206473e25457e8489a63c765195b70487848d9bd6496613e8a0d26d2996400a77564736f6c63430008040033",
  "linkReferences": {},
  "deployedLinkReferences": {}
}