{
  "_format": "hh-sol-artifact-1",
  "contractName": "Store",
  "sourceName": "contracts/Store.sol",
  "abi": [
    {
      "inputs": [],
      "stateMutability": "nonpayable",
      "type": "constructor"
    },
    {
      "inputs": [
        {
          "internalType": "uint256",
          "name": "_index",
          "type": "uint256"
        },
        {
          "internalType": "uint256",
          "name": "amount",
          "type": "uint256"
        }
      ],
      "name": "buyInBulk",
      "outputs": [],
      "stateMutability": "nonpayable",
      "type": "function"
    },
    {
      "inputs": [
        {
          "internalType": "uint256",
          "name": "_index",
          "type": "uint256"
        }
      ],
      "name": "buyItem",
      "outputs": [],
      "stateMutability": "payable",
      "type": "function"
    },
    {
      "inputs": [
        {
          "internalType": "uint256",
          "name": "_index",
          "type": "uint256"
        }
      ],
      "name": "deleteProduct",
      "outputs": [],
      "stateMutability": "nonpayable",
      "type": "function"
    },
    {
      "inputs": [],
      "name": "getAllItems",
      "outputs": [
        {
          "components": [
            {
              "internalType": "uint256",
              "name": "id",
              "type": "uint256"
            },
            {
              "internalType": "address payable",
              "name": "seller",
              "type": "address"
            },
            {
              "internalType": "string",
              "name": "name",
              "type": "string"
            },
            {
              "internalType": "string",
              "name": "image",
              "type": "string"
            },
            {
              "internalType": "uint256",
              "name": "price",
              "type": "uint256"
            },
            {
              "internalType": "uint256",
              "name": "sellCount",
              "type": "uint256"
            },
            {
              "internalType": "uint256",
              "name": "stock",
              "type": "uint256"
            }
          ],
          "internalType": "struct Store.Item[]",
          "name": "",
          "type": "tuple[]"
        }
      ],
      "stateMutability": "view",
      "type": "function"
    },
    {
      "inputs": [
        {
          "internalType": "string",
          "name": "_name",
          "type": "string"
        },
        {
          "internalType": "string",
          "name": "_image",
          "type": "string"
        },
        {
          "internalType": "uint256",
          "name": "_price",
          "type": "uint256"
        },
        {
          "internalType": "uint256",
          "name": "_stock",
          "type": "uint256"
        }
      ],
      "name": "postItem",
      "outputs": [],
      "stateMutability": "nonpayable",
      "type": "function"
    },
    {
      "inputs": [
        {
          "internalType": "uint256",
          "name": "_index",
          "type": "uint256"
        },
        {
          "internalType": "uint256",
          "name": "amount",
          "type": "uint256"
        }
      ],
      "name": "reStock",
      "outputs": [],
      "stateMutability": "nonpayable",
      "type": "function"
    },
    {
      "inputs": [
        {
          "internalType": "uint256",
          "name": "_index",
          "type": "uint256"
        }
      ],
      "name": "removeProduct",
      "outputs": [],
      "stateMutability": "nonpayable",
      "type": "function"
    }
  ],
  "bytecode": "0x608060405273874069fa1eb16d44d622f2e0ca25eea172369bc1600160006101000a81548173ffffffffffffffffffffffffffffffffffffffff021916908373ffffffffffffffffffffffffffffffffffffffff16021790555034801561006557600080fd5b5033600360006101000a81548173ffffffffffffffffffffffffffffffffffffffff021916908373ffffffffffffffffffffffffffffffffffffffff160217905550611e65806100b66000396000f3fe6080604052600436106100705760003560e01c80635ee95cae1161004e5780635ee95cae146100f2578063af2b60a21461011b578063e7fb74c714610144578063ed90c7b71461016057610070565b806323771759146100755780634ba1d6aa1461009e5780635cf8946c146100c9575b600080fd5b34801561008157600080fd5b5061009c600480360381019061009791906112e6565b610189565b005b3480156100aa57600080fd5b506100b36102a3565b6040516100c0919061168a565b60405180910390f35b3480156100d557600080fd5b506100f060048036038101906100eb91906112e6565b610578565b005b3480156100fe57600080fd5b50610119600480360381019061011491906112bd565b6107f3565b005b34801561012757600080fd5b50610142600480360381019061013d919061122a565b6108f1565b005b61015e600480360381019061015991906112bd565b610b74565b005b34801561016c57600080fd5b50610187600480360381019061018291906112bd565b610e61565b005b813373ffffffffffffffffffffffffffffffffffffffff166004600083815260200190815260200160002060010160009054906101000a900473ffffffffffffffffffffffffffffffffffffffff1673ffffffffffffffffffffffffffffffffffffffff161461022e576040517f08c379a00000000000000000000000000000000000000000000000000000000081526004016102259061174c565b60405180910390fd5b60008211610271576040517f08c379a0000000000000000000000000000000000000000000000000000000008152600401610268906117ac565b60405180910390fd5b8160046000858152602001908152602001600020600601600082825461029791906118c8565b92505081905550505050565b6060600060025467ffffffffffffffff8111156102e9577f4e487b7100000000000000000000000000000000000000000000000000000000600052604160045260246000fd5b60405190808252806020026020018201604052801561032257816020015b61030f611039565b8152602001906001900390816103075790505b50905060005b600054811015610570576005600082815260200190815260200160002060009054906101000a900460ff161561055d57600460008281526020019081526020016000206040518060e0016040529081600082015481526020016001820160009054906101000a900473ffffffffffffffffffffffffffffffffffffffff1673ffffffffffffffffffffffffffffffffffffffff1673ffffffffffffffffffffffffffffffffffffffff1681526020016002820180546103e690611aa8565b80601f016020809104026020016040519081016040528092919081815260200182805461041290611aa8565b801561045f5780601f106104345761010080835404028352916020019161045f565b820191906000526020600020905b81548152906001019060200180831161044257829003601f168201915b5050505050815260200160038201805461047890611aa8565b80601f01602080910402602001604051908101604052809291908181526020018280546104a490611aa8565b80156104f15780601f106104c6576101008083540402835291602001916104f1565b820191906000526020600020905b8154815290600101906020018083116104d457829003601f168201915b505050505081526020016004820154815260200160058201548152602001600682015481525050828281518110610551577f4e487b7100000000000000000000000000000000000000000000000000000000600052603260045260246000fd5b60200260200101819052505b808061056890611b0b565b915050610328565b508091505090565b813373ffffffffffffffffffffffffffffffffffffffff166004600083815260200190815260200160002060010160009054906101000a900473ffffffffffffffffffffffffffffffffffffffff1673ffffffffffffffffffffffffffffffffffffffff16141561061e576040517f08c379a00000000000000000000000000000000000000000000000000000000081526004016106159061174c565b60405180910390fd5b6000600460008581526020019081526020016000209050828160060154101561067c576040517f08c379a0000000000000000000000000000000000000000000000000000000008152600401610673906117cc565b60405180910390fd5b600083826004015461068e919061191e565b9050600160009054906101000a900473ffffffffffffffffffffffffffffffffffffffff1673ffffffffffffffffffffffffffffffffffffffff166323b872dd336004600089815260200190815260200160002060010160009054906101000a900473ffffffffffffffffffffffffffffffffffffffff16846040518463ffffffff1660e01b815260040161072593929190611653565b602060405180830381600087803b15801561073f57600080fd5b505af1158015610753573d6000803e3d6000fd5b505050506040513d601f19601f820116820180604052508101906107779190611201565b6107b6576040517f08c379a00000000000000000000000000000000000000000000000000000000081526004016107ad9061170c565b60405180910390fd5b838260050160008282546107ca91906118c8565b92505081905550838260060160008282546107e59190611978565b925050819055505050505050565b806005600082815260200190815260200160002060009054906101000a900460ff16610854576040517f08c379a000000000000000000000000000000000000000000000000000000000815260040161084b906116cc565b60405180910390fd5b3373ffffffffffffffffffffffffffffffffffffffff16600360009054906101000a900473ffffffffffffffffffffffffffffffffffffffff1673ffffffffffffffffffffffffffffffffffffffff16146108e4576040517f08c379a00000000000000000000000000000000000000000000000000000000081526004016108db9061172c565b60405180910390fd5b6108ed82610f75565b5050565b6000845111610935576040517f08c379a000000000000000000000000000000000000000000000000000000000815260040161092c906116ec565b60405180910390fd5b6000835111610979576040517f08c379a00000000000000000000000000000000000000000000000000000000081526004016109709061178c565b60405180910390fd5b670de0b6b3a764000082116109c3576040517f08c379a00000000000000000000000000000000000000000000000000000000081526004016109ba906117ec565b60405180910390fd5b60008111610a06576040517f08c379a00000000000000000000000000000000000000000000000000000000081526004016109fd906116ac565b60405180910390fd5b6040518060e0016040528060005481526020013373ffffffffffffffffffffffffffffffffffffffff168152602001858152602001848152602001838152602001600081526020018281525060046000805481526020019081526020016000206000820151816000015560208201518160010160006101000a81548173ffffffffffffffffffffffffffffffffffffffff021916908373ffffffffffffffffffffffffffffffffffffffff1602179055506040820151816002019080519060200190610ad392919061108c565b506060820151816003019080519060200190610af092919061108c565b506080820151816004015560a0820151816005015560c082015181600601559050506001600560008054815260200190815260200160002060006101000a81548160ff02191690831515021790555060026000815480929190610b5290611b0b565b9190505550600080815480929190610b6990611b0b565b919050555050505050565b806005600082815260200190815260200160002060009054906101000a900460ff16610bd5576040517f08c379a0000000000000000000000000000000000000000000000000000000008152600401610bcc906116cc565b60405180910390fd5b813373ffffffffffffffffffffffffffffffffffffffff166004600083815260200190815260200160002060010160009054906101000a900473ffffffffffffffffffffffffffffffffffffffff1673ffffffffffffffffffffffffffffffffffffffff161415610c7b576040517f08c379a0000000000000000000000000000000000000000000000000000000008152600401610c729061174c565b60405180910390fd5b60006004600085815260200190815260200160002090506000600460008681526020019081526020016000206006015411610ceb576040517f08c379a0000000000000000000000000000000000000000000000000000000008152600401610ce29061176c565b60405180910390fd5b600160009054906101000a900473ffffffffffffffffffffffffffffffffffffffff1673ffffffffffffffffffffffffffffffffffffffff166323b872dd336004600088815260200190815260200160002060010160009054906101000a900473ffffffffffffffffffffffffffffffffffffffff1660046000898152602001908152602001600020600401546040518463ffffffff1660e01b8152600401610d9693929190611653565b602060405180830381600087803b158015610db057600080fd5b505af1158015610dc4573d6000803e3d6000fd5b505050506040513d601f19601f82011682018060405250810190610de89190611201565b610e27576040517f08c379a0000000000000000000000000000000000000000000000000000000008152600401610e1e9061170c565b60405180910390fd5b806005016000815480929190610e3c90611b0b565b9190505550806006016000815480929190610e5690611a7e565b919050555050505050565b806005600082815260200190815260200160002060009054906101000a900460ff16610ec2576040517f08c379a0000000000000000000000000000000000000000000000000000000008152600401610eb9906116cc565b60405180910390fd5b813373ffffffffffffffffffffffffffffffffffffffff166004600083815260200190815260200160002060010160009054906101000a900473ffffffffffffffffffffffffffffffffffffffff1673ffffffffffffffffffffffffffffffffffffffff1614610f67576040517f08c379a0000000000000000000000000000000000000000000000000000000008152600401610f5e9061174c565b60405180910390fd5b610f7083610f75565b505050565b60026000815480929190610f8890611a7e565b919050555060006005600083815260200190815260200160002060006101000a81548160ff021916908315150217905550600460008281526020019081526020016000206000808201600090556001820160006101000a81549073ffffffffffffffffffffffffffffffffffffffff021916905560028201600061100c9190611112565b60038201600061101c9190611112565b600482016000905560058201600090556006820160009055505050565b6040518060e0016040528060008152602001600073ffffffffffffffffffffffffffffffffffffffff16815260200160608152602001606081526020016000815260200160008152602001600081525090565b82805461109890611aa8565b90600052602060002090601f0160209004810192826110ba5760008555611101565b82601f106110d357805160ff1916838001178555611101565b82800160010185558215611101579182015b828111156111005782518255916020019190600101906110e5565b5b50905061110e9190611152565b5090565b50805461111e90611aa8565b6000825580601f10611130575061114f565b601f01602090049060005260206000209081019061114e9190611152565b5b50565b5b8082111561116b576000816000905550600101611153565b5090565b600061118261117d84611831565b61180c565b90508281526020810184848401111561119a57600080fd5b6111a5848285611a3c565b509392505050565b6000815190506111bc81611e01565b92915050565b600082601f8301126111d357600080fd5b81356111e384826020860161116f565b91505092915050565b6000813590506111fb81611e18565b92915050565b60006020828403121561121357600080fd5b6000611221848285016111ad565b91505092915050565b6000806000806080858703121561124057600080fd5b600085013567ffffffffffffffff81111561125a57600080fd5b611266878288016111c2565b945050602085013567ffffffffffffffff81111561128357600080fd5b61128f878288016111c2565b93505060406112a0878288016111ec565b92505060606112b1878288016111ec565b91505092959194509250565b6000602082840312156112cf57600080fd5b60006112dd848285016111ec565b91505092915050565b600080604083850312156112f957600080fd5b6000611307858286016111ec565b9250506020611318858286016111ec565b9150509250929050565b600061132e8383611592565b905092915050565b61133f81611a06565b82525050565b61134e816119be565b82525050565b61135d816119ac565b82525050565b600061136e82611872565b6113788185611895565b93508360208202850161138a85611862565b8060005b858110156113c657848403895281516113a78582611322565b94506113b283611888565b925060208a0199505060018101905061138e565b50829750879550505050505092915050565b60006113e38261187d565b6113ed81856118a6565b93506113fd818560208601611a4b565b61140681611be1565b840191505092915050565b600061141e6033836118b7565b915061142982611bf2565b604082019050919050565b60006114416015836118b7565b915061144c82611c41565b602082019050919050565b6000611464600c836118b7565b915061146f82611c6a565b602082019050919050565b6000611487600f836118b7565b915061149282611c93565b602082019050919050565b60006114aa6016836118b7565b91506114b582611cbc565b602082019050919050565b60006114cd601d836118b7565b91506114d882611ce5565b602082019050919050565b60006114f0600c836118b7565b91506114fb82611d0e565b602082019050919050565b60006115136011836118b7565b915061151e82611d37565b602082019050919050565b6000611536601d836118b7565b915061154182611d60565b602082019050919050565b60006115596013836118b7565b915061156482611d89565b602082019050919050565b600061157c6022836118b7565b915061158782611db2565b604082019050919050565b600060e0830160008301516115aa6000860182611635565b5060208301516115bd6020860182611345565b50604083015184820360408601526115d582826113d8565b915050606083015184820360608601526115ef82826113d8565b91505060808301516116046080860182611635565b5060a083015161161760a0860182611635565b5060c083015161162a60c0860182611635565b508091505092915050565b61163e816119fc565b82525050565b61164d816119fc565b82525050565b60006060820190506116686000830186611354565b6116756020830185611336565b6116826040830184611644565b949350505050565b600060208201905081810360008301526116a48184611363565b905092915050565b600060208201905081810360008301526116c581611411565b9050919050565b600060208201905081810360008301526116e581611434565b9050919050565b6000602082019050818103600083015261170581611457565b9050919050565b600060208201905081810360008301526117258161147a565b9050919050565b600060208201905081810360008301526117458161149d565b9050919050565b60006020820190508181036000830152611765816114c0565b9050919050565b60006020820190508181036000830152611785816114e3565b9050919050565b600060208201905081810360008301526117a581611506565b9050919050565b600060208201905081810360008301526117c581611529565b9050919050565b600060208201905081810360008301526117e58161154c565b9050919050565b600060208201905081810360008301526118058161156f565b9050919050565b6000611816611827565b90506118228282611ada565b919050565b6000604051905090565b600067ffffffffffffffff82111561184c5761184b611bb2565b5b61185582611be1565b9050602081019050919050565b6000819050602082019050919050565b600081519050919050565b600081519050919050565b6000602082019050919050565b600082825260208201905092915050565b600082825260208201905092915050565b600082825260208201905092915050565b60006118d3826119fc565b91506118de836119fc565b9250827fffffffffffffffffffffffffffffffffffffffffffffffffffffffffffffffff0382111561191357611912611b54565b5b828201905092915050565b6000611929826119fc565b9150611934836119fc565b9250817fffffffffffffffffffffffffffffffffffffffffffffffffffffffffffffffff048311821515161561196d5761196c611b54565b5b828202905092915050565b6000611983826119fc565b915061198e836119fc565b9250828210156119a1576119a0611b54565b5b828203905092915050565b60006119b7826119dc565b9050919050565b60006119c9826119dc565b9050919050565b60008115159050919050565b600073ffffffffffffffffffffffffffffffffffffffff82169050919050565b6000819050919050565b6000611a1182611a18565b9050919050565b6000611a2382611a2a565b9050919050565b6000611a35826119dc565b9050919050565b82818337600083830152505050565b60005b83811015611a69578082015181840152602081019050611a4e565b83811115611a78576000848401525b50505050565b6000611a89826119fc565b91506000821415611a9d57611a9c611b54565b5b600182039050919050565b60006002820490506001821680611ac057607f821691505b60208210811415611ad457611ad3611b83565b5b50919050565b611ae382611be1565b810181811067ffffffffffffffff82111715611b0257611b01611bb2565b5b80604052505050565b6000611b16826119fc565b91507fffffffffffffffffffffffffffffffffffffffffffffffffffffffffffffffff821415611b4957611b48611b54565b5b600182019050919050565b7f4e487b7100000000000000000000000000000000000000000000000000000000600052601160045260246000fd5b7f4e487b7100000000000000000000000000000000000000000000000000000000600052602260045260246000fd5b7f4e487b7100000000000000000000000000000000000000000000000000000000600052604160045260246000fd5b6000601f19601f8301169050919050565b7f4e756d626572206f6620617661696c61626c652070726f6475637420746f206260008201527f652067726561746572207468616e207a65726f00000000000000000000000000602082015250565b7f50726f6475637420646f65736e27742065786973740000000000000000000000600082015250565b7f496e76616c6964206e616d650000000000000000000000000000000000000000600082015250565b7f5472616e73666572206661696c65640000000000000000000000000000000000600082015250565b7f4f6e6c79206f776e6572206f6620636f6e747261637400000000000000000000600082015250565b7f53656c6c65722063616e27742062757920686973206f776e206974656d000000600082015250565b7f4f7574206f662073746f636b0000000000000000000000000000000000000000600082015250565b7f496e76616c696420696d6167652075726c000000000000000000000000000000600082015250565b7f496e76616c696420616d6f756e7420666f7220726573746f636b696e67000000600082015250565b7f4e6f7420656e6f75676820696e2073746f636b00000000000000000000000000600082015250565b7f5072696365206e65656420746f206265206174206c65617374206f6e6520435560008201527f5344000000000000000000000000000000000000000000000000000000000000602082015250565b611e0a816119d0565b8114611e1557600080fd5b50565b611e21816119fc565b8114611e2c57600080fd5b5056fea26469706673582212201f1d6f331b15e01902814e10046fc96e00df2e334fa5f789a256d02819f6021a64736f6c63430008040033",
  "linkReferences": {},
  "deployedLinkReferences": {}
}